{
  "contractName": "TokenManager",
  "abi": [
    {
      "constant": true,
      "inputs": [],
      "name": "ERC20Interface",
      "outputs": [
        {
          "name": "",
          "type": "address"
        }
      ],
      "payable": false,
      "stateMutability": "view",
      "type": "function"
    },
    {
      "constant": false,
      "inputs": [],
      "name": "unpause",
      "outputs": [],
      "payable": false,
      "stateMutability": "nonpayable",
      "type": "function"
    },
    {
      "constant": true,
      "inputs": [
        {
          "name": "account",
          "type": "address"
        }
      ],
      "name": "isPauser",
      "outputs": [
        {
          "name": "",
          "type": "bool"
        }
      ],
      "payable": false,
      "stateMutability": "view",
      "type": "function"
    },
    {
      "constant": true,
      "inputs": [],
      "name": "paused",
      "outputs": [
        {
          "name": "",
          "type": "bool"
        }
      ],
      "payable": false,
      "stateMutability": "view",
      "type": "function"
    },
    {
      "constant": false,
      "inputs": [],
      "name": "renouncePauser",
      "outputs": [],
      "payable": false,
      "stateMutability": "nonpayable",
      "type": "function"
    },
    {
      "constant": false,
      "inputs": [],
      "name": "renounceOwnership",
      "outputs": [],
      "payable": false,
      "stateMutability": "nonpayable",
      "type": "function"
    },
    {
      "constant": false,
      "inputs": [
        {
          "name": "account",
          "type": "address"
        }
      ],
      "name": "addPauser",
      "outputs": [],
      "payable": false,
      "stateMutability": "nonpayable",
      "type": "function"
    },
    {
      "constant": false,
      "inputs": [],
      "name": "pause",
      "outputs": [],
      "payable": false,
      "stateMutability": "nonpayable",
      "type": "function"
    },
    {
      "constant": true,
      "inputs": [],
      "name": "owner",
      "outputs": [
        {
          "name": "",
          "type": "address"
        }
      ],
      "payable": false,
      "stateMutability": "view",
      "type": "function"
    },
    {
      "constant": true,
      "inputs": [],
      "name": "isOwner",
      "outputs": [
        {
          "name": "",
          "type": "bool"
        }
      ],
      "payable": false,
      "stateMutability": "view",
      "type": "function"
    },
    {
      "constant": true,
      "inputs": [
        {
          "name": "",
          "type": "bytes32"
        }
      ],
      "name": "tokens",
      "outputs": [
        {
          "name": "",
          "type": "address"
        }
      ],
      "payable": false,
      "stateMutability": "view",
      "type": "function"
    },
    {
      "constant": true,
      "inputs": [
        {
          "name": "",
          "type": "uint256"
        }
      ],
      "name": "transactions",
      "outputs": [
        {
          "name": "contract_",
          "type": "address"
        },
        {
          "name": "to_",
          "type": "address"
        },
        {
          "name": "amount_",
          "type": "uint256"
        },
        {
          "name": "failed_",
          "type": "bool"
        }
      ],
      "payable": false,
      "stateMutability": "view",
      "type": "function"
    },
    {
      "constant": true,
      "inputs": [
        {
          "name": "",
          "type": "address"
        },
        {
          "name": "",
          "type": "uint256"
        }
      ],
      "name": "transactionIndexesToSender",
      "outputs": [
        {
          "name": "",
          "type": "uint256"
        }
      ],
      "payable": false,
      "stateMutability": "view",
      "type": "function"
    },
    {
      "constant": false,
      "inputs": [
        {
          "name": "newOwner",
          "type": "address"
        }
      ],
      "name": "transferOwnership",
      "outputs": [],
      "payable": false,
      "stateMutability": "nonpayable",
      "type": "function"
    },
    {
      "inputs": [],
      "payable": false,
      "stateMutability": "nonpayable",
      "type": "constructor"
    },
    {
      "payable": true,
      "stateMutability": "payable",
      "type": "fallback"
    },
    {
      "anonymous": false,
      "inputs": [
        {
          "indexed": true,
          "name": "from_",
          "type": "address"
        },
        {
          "indexed": true,
          "name": "to_",
          "type": "address"
        },
        {
          "indexed": false,
          "name": "amount_",
          "type": "uint256"
        }
      ],
      "name": "TransferSuccessful",
      "type": "event"
    },
    {
      "anonymous": false,
      "inputs": [
        {
          "indexed": true,
          "name": "from_",
          "type": "address"
        },
        {
          "indexed": true,
          "name": "to_",
          "type": "address"
        },
        {
          "indexed": false,
          "name": "amount_",
          "type": "uint256"
        }
      ],
      "name": "TransferFailed",
      "type": "event"
    },
    {
      "anonymous": false,
      "inputs": [
        {
          "indexed": false,
          "name": "account",
          "type": "address"
        }
      ],
      "name": "Paused",
      "type": "event"
    },
    {
      "anonymous": false,
      "inputs": [
        {
          "indexed": false,
          "name": "account",
          "type": "address"
        }
      ],
      "name": "Unpaused",
      "type": "event"
    },
    {
      "anonymous": false,
      "inputs": [
        {
          "indexed": true,
          "name": "account",
          "type": "address"
        }
      ],
      "name": "PauserAdded",
      "type": "event"
    },
    {
      "anonymous": false,
      "inputs": [
        {
          "indexed": true,
          "name": "account",
          "type": "address"
        }
      ],
      "name": "PauserRemoved",
      "type": "event"
    },
    {
      "anonymous": false,
      "inputs": [
        {
          "indexed": true,
          "name": "previousOwner",
          "type": "address"
        },
        {
          "indexed": true,
          "name": "newOwner",
          "type": "address"
        }
      ],
      "name": "OwnershipTransferred",
      "type": "event"
    },
    {
      "constant": false,
      "inputs": [
        {
          "name": "symbol_",
          "type": "bytes32"
        },
        {
          "name": "address_",
          "type": "address"
        }
      ],
      "name": "addNewToken",
      "outputs": [
        {
          "name": "",
          "type": "bool"
        }
      ],
      "payable": false,
      "stateMutability": "nonpayable",
      "type": "function"
    },
    {
      "constant": false,
      "inputs": [
        {
          "name": "symbol_",
          "type": "bytes32"
        }
      ],
      "name": "removeToken",
      "outputs": [
        {
          "name": "",
          "type": "bool"
        }
      ],
      "payable": false,
      "stateMutability": "nonpayable",
      "type": "function"
    },
    {
      "constant": false,
      "inputs": [
        {
          "name": "symbol_",
          "type": "bytes32"
        },
        {
          "name": "to_",
          "type": "address"
        },
        {
          "name": "amount_",
          "type": "uint256"
        }
      ],
      "name": "transferTokens",
      "outputs": [],
      "payable": false,
      "stateMutability": "nonpayable",
      "type": "function"
    },
    {
      "constant": false,
      "inputs": [
        {
          "name": "beneficiary",
          "type": "address"
        }
      ],
      "name": "withdraw",
      "outputs": [],
      "payable": true,
      "stateMutability": "payable",
      "type": "function"
    }
  ],
  "bytecode": "0x608060405234801561001057600080fd5b5060008054600160a060020a0319163317808255604051600160a060020a039190911691907f8be0079c531659141344cd1fd0a4f28419497f9722a3daafe3b4186f6b6457e0908290a361006c33640100000000610087810204565b60028054600160a860020a0319166101003302179055610164565b61009f600182640100000000610de16100d682021704565b604051600160a060020a038216907f6719d08c1888103bea251a4ed56406bd0c3e69723c8a1686e017e7bbe159b6f890600090a250565b600160a060020a03811615156100eb57600080fd5b6100fe828264010000000061012d810204565b1561010857600080fd5b600160a060020a0316600090815260209190915260409020805460ff19166001179055565b6000600160a060020a038216151561014457600080fd5b50600160a060020a03166000908152602091909152604090205460ff1690565b610e75806101736000396000f3006080604052600436106100fb5763ffffffff7c01000000000000000000000000000000000000000000000000000000006000350416631bbc4b8381146100fd5780631f9988c91461013b578063224e74621461016f5780633f4ba83a1461019b57806346fbf68e146101b057806351cff8d9146101de5780635c975abb146101ff5780636ef8d66d14610214578063715018a61461022957806382dc1ec41461023e5780638456cb591461026c5780638da5cb5b146102815780638f32d59b14610296578063904194a3146102ab5780639ace38c2146102c3578063b082443b1461031c578063c47964371461034d578063f2fde38b14610390575b005b34801561010957600080fd5b506101126103be565b6040805173ffffffffffffffffffffffffffffffffffffffff9092168252519081900360200190f35b34801561014757600080fd5b506100fb60043573ffffffffffffffffffffffffffffffffffffffff602435166044356103da565b34801561017b57600080fd5b50610187600435610808565b604080519115158252519081900360200190f35b3480156101a757600080fd5b506100fb61087c565b3480156101bc57600080fd5b5061018773ffffffffffffffffffffffffffffffffffffffff600435166108e0565b6100fb73ffffffffffffffffffffffffffffffffffffffff600435166108f9565b34801561020b57600080fd5b50610187610963565b34801561022057600080fd5b506100fb61096c565b34801561023557600080fd5b506100fb610977565b34801561024a57600080fd5b506100fb73ffffffffffffffffffffffffffffffffffffffff600435166109ee565b34801561027857600080fd5b506100fb610a0e565b34801561028d57600080fd5b50610112610a74565b3480156102a257600080fd5b50610187610a95565b3480156102b757600080fd5b50610112600435610ab3565b3480156102cf57600080fd5b506102db600435610adb565b6040805173ffffffffffffffffffffffffffffffffffffffff9586168152939094166020840152828401919091521515606082015290519081900360800190f35b34801561032857600080fd5b5061018760043573ffffffffffffffffffffffffffffffffffffffff60243516610b2f565b34801561035957600080fd5b5061037e73ffffffffffffffffffffffffffffffffffffffff60043516602435610b90565b60408051918252519081900360200190f35b34801561039c57600080fd5b506100fb73ffffffffffffffffffffffffffffffffffffffff60043516610bc0565b60065473ffffffffffffffffffffffffffffffffffffffff1681565b6002546000908190819060ff16156103f157600080fd5b60008681526005602052604090205473ffffffffffffffffffffffffffffffffffffffff16151561042157600080fd5b6000841161042e57600080fd5b5050506000838152600560209081526040808320546006805473ffffffffffffffffffffffffffffffffffffffff92831673ffffffffffffffffffffffffffffffffffffffff199182168117835584516080810186528181528985168188019081528187018a815260016060840181815260038054808401808355918e5295517fc2575a0e9e593c00f959f8c92f12db2869c3395a3b0502d05e2516446f71f85b600480890291820180548c16938e169390931790925595517fc2575a0e9e593c00f959f8c92f12db2869c3395a3b0502d05e2516446f71f85c87018054909a16908c161790985592517fc2575a0e9e593c00f959f8c92f12db2869c3395a3b0502d05e2516446f71f85d850155517fc2575a0e9e593c00f959f8c92f12db2869c3395a3b0502d05e2516446f71f85e909301805460ff19169315159390931790925533808b52858a52888b20805493840181558b52898b2090920192909255935486517fdd62ed3e00000000000000000000000000000000000000000000000000000000815293840185905230602485015295519197939690959094169363dd62ed3e936044808501949293928390030190829087803b1580156105f257600080fd5b505af1158015610606573d6000803e3d6000fd5b505050506040513d602081101561061c57600080fd5b505184111561068f578473ffffffffffffffffffffffffffffffffffffffff168273ffffffffffffffffffffffffffffffffffffffff167fbf182be802245e8ed88e4b8d3e4344c0863dd2a70334f089fd07265389306fcf866040518082815260200191505060405180910390a3600080fd5b600654604080517f23b872dd00000000000000000000000000000000000000000000000000000000815273ffffffffffffffffffffffffffffffffffffffff8581166004830152888116602483015260448201889052915191909216916323b872dd9160648083019260209291908290030181600087803b15801561071357600080fd5b505af1158015610727573d6000803e3d6000fd5b505050506040513d602081101561073d57600080fd5b505060038054600091907fffffffffffffffffffffffffffffffffffffffffffffffffffffffffffffffff840190811061077357fe5b906000526020600020906004020160030160006101000a81548160ff0219169083151502179055508473ffffffffffffffffffffffffffffffffffffffff168273ffffffffffffffffffffffffffffffffffffffff167fd6d3eb25a413c05d8107fc49deb2789bef7f612582b2482804c0b0423b6638ee866040518082815260200191505060405180910390a3505050505050565b6000610812610a95565b151561081d57600080fd5b60008281526005602052604090205473ffffffffffffffffffffffffffffffffffffffff16151561084d57600080fd5b506000908152600560205260409020805473ffffffffffffffffffffffffffffffffffffffff19169055600190565b610885336108e0565b151561089057600080fd5b60025460ff1615156108a157600080fd5b6002805460ff191690556040805133815290517f5db9ee0a495bf2e6ff9c91a7834c1ba4fdd244a5e8aa4e537bd38aeae4b073aa9181900360200190a1565b60006108f360018363ffffffff610bdc16565b92915050565b610901610a95565b151561090c57600080fd5b60025460ff161561091c57600080fd5b60405173ffffffffffffffffffffffffffffffffffffffff821690303180156108fc02916000818181858888f1935050505015801561095f573d6000803e3d6000fd5b5050565b60025460ff1690565b61097533610c2d565b565b61097f610a95565b151561098a57600080fd5b6000805460405173ffffffffffffffffffffffffffffffffffffffff909116907f8be0079c531659141344cd1fd0a4f28419497f9722a3daafe3b4186f6b6457e0908390a36000805473ffffffffffffffffffffffffffffffffffffffff19169055565b6109f7336108e0565b1515610a0257600080fd5b610a0b81610c82565b50565b610a17336108e0565b1515610a2257600080fd5b60025460ff1615610a3257600080fd5b6002805460ff191660011790556040805133815290517f62e78cea01bee320cd4e420270b5ea74000d11b0c9f74754ebdbfc544b05a2589181900360200190a1565b600254610100900473ffffffffffffffffffffffffffffffffffffffff1681565b60005473ffffffffffffffffffffffffffffffffffffffff16331490565b60056020526000908152604090205473ffffffffffffffffffffffffffffffffffffffff1681565b6003805482908110610ae957fe5b6000918252602090912060049091020180546001820154600283015460039093015473ffffffffffffffffffffffffffffffffffffffff92831694509116919060ff1684565b6000610b39610a95565b1515610b4457600080fd5b506000828152600560205260409020805473ffffffffffffffffffffffffffffffffffffffff831673ffffffffffffffffffffffffffffffffffffffff19909116179055600192915050565b600460205281600052604060002081815481101515610bab57fe5b90600052602060002001600091509150505481565b610bc8610a95565b1515610bd357600080fd5b610a0b81610cd7565b600073ffffffffffffffffffffffffffffffffffffffff82161515610c0057600080fd5b5073ffffffffffffffffffffffffffffffffffffffff166000908152602091909152604090205460ff1690565b610c3e60018263ffffffff610d7b16565b60405173ffffffffffffffffffffffffffffffffffffffff8216907fcd265ebaf09df2871cc7bd4133404a235ba12eff2041bb89d9c714a2621c7c7e90600090a250565b610c9360018263ffffffff610de116565b60405173ffffffffffffffffffffffffffffffffffffffff8216907f6719d08c1888103bea251a4ed56406bd0c3e69723c8a1686e017e7bbe159b6f890600090a250565b73ffffffffffffffffffffffffffffffffffffffff81161515610cf957600080fd5b6000805460405173ffffffffffffffffffffffffffffffffffffffff808516939216917f8be0079c531659141344cd1fd0a4f28419497f9722a3daafe3b4186f6b6457e091a36000805473ffffffffffffffffffffffffffffffffffffffff191673ffffffffffffffffffffffffffffffffffffffff92909216919091179055565b73ffffffffffffffffffffffffffffffffffffffff81161515610d9d57600080fd5b610da78282610bdc565b1515610db257600080fd5b73ffffffffffffffffffffffffffffffffffffffff16600090815260209190915260409020805460ff19169055565b73ffffffffffffffffffffffffffffffffffffffff81161515610e0357600080fd5b610e0d8282610bdc565b15610e1757600080fd5b73ffffffffffffffffffffffffffffffffffffffff16600090815260209190915260409020805460ff191660011790555600a165627a7a723058200e2826484d1bad0f1323d1ecb30dfea378794d29da2db03dd4f2ce7ae5b23e230029",
  "source": "pragma solidity ^0.4.24;\n\nimport \"openzeppelin-solidity/contracts/token/ERC20/ERC20.sol\";\nimport \"openzeppelin-solidity/contracts/lifecycle/Pausable.sol\";\nimport \"openzeppelin-solidity/contracts/ownership/Ownable.sol\";\n\ncontract TokenManager is Ownable, Pausable {\n\n    struct Transfer {\n        address contract_;\n        address to_;\n        uint amount_;\n        bool failed_;\n    }\n\n    address public owner;\n\n    Transfer[] public transactions;\n\n    mapping(address => uint[]) public transactionIndexesToSender;\n    mapping(bytes32 => address) public tokens;\n\n    ERC20 public ERC20Interface;\n\n    event TransferSuccessful(address indexed from_, address indexed to_, uint256 amount_);\n    event TransferFailed(address indexed from_, address indexed to_, uint256 amount_);\n\n    constructor() public {\n        owner = msg.sender;\n    }\n\n    function addNewToken(bytes32 symbol_, address address_) public onlyOwner returns (bool) {\n        tokens[symbol_] = address_;\n        return true;\n    }\n\n    function removeToken(bytes32 symbol_) public onlyOwner returns (bool) {\n        require(tokens[symbol_] != 0x0); \n        delete(tokens[symbol_]);\n        return true;\n    }\n\n    function transferTokens(bytes32 symbol_, address to_, uint256 amount_) public whenNotPaused {\n        require(tokens[symbol_] != 0x0);\n        require(amount_ > 0);\n\n        address contract_ = tokens[symbol_];\n        address from_ = msg.sender;\n\n        ERC20Interface = ERC20(contract_);\n\n        uint256 transactionId = transactions.push(\n            Transfer({\n                contract_:  contract_,\n                to_: to_,\n                amount_: amount_,\n                failed_: true\n            })\n        );\n\n        transactionIndexesToSender[from_].push(transactionId - 1);\n\n        if (amount_ > ERC20Interface.allowance(from_, address(this))) {\n            emit TransferFailed(from_, to_, amount_);\n            revert();\n        }\n\n        ERC20Interface.transferFrom(from_, to_, amount_);\n\n        transactions[transactionId - 1].failed_ = false;\n\n        emit TransferSuccessful(from_, to_, amount_);\n    }\n\n    function() public payable {\n\n    }\n\n    function withdraw(address beneficiary) public payable onlyOwner whenNotPaused {\n        beneficiary.transfer(address(this).balance);\n    }\n}",
  "sourcePath": "/Users/jedsada/Documents/development/demo-token/contracts/TokenManager.sol",
  "compiler": {
    "name": "solc",
    "version": "0.4.24+commit.e67f0147.Emscripten.clang"
  },
  "schemaVersion": "2.0.1",
  "updatedAt": "2018-10-24T09:26:52.507Z"
}