{
  "contractName": "TokenManager",
  "abi": [
    {
      "constant": true,
      "inputs": [],
      "name": "ERC20Interface",
      "outputs": [
        {
          "name": "",
          "type": "address"
        }
      ],
      "payable": false,
      "stateMutability": "view",
      "type": "function"
    },
    {
      "constant": false,
      "inputs": [],
      "name": "unpause",
      "outputs": [],
      "payable": false,
      "stateMutability": "nonpayable",
      "type": "function"
    },
    {
      "constant": true,
      "inputs": [
        {
          "name": "account",
          "type": "address"
        }
      ],
      "name": "isPauser",
      "outputs": [
        {
          "name": "",
          "type": "bool"
        }
      ],
      "payable": false,
      "stateMutability": "view",
      "type": "function"
    },
    {
      "constant": true,
      "inputs": [],
      "name": "paused",
      "outputs": [
        {
          "name": "",
          "type": "bool"
        }
      ],
      "payable": false,
      "stateMutability": "view",
      "type": "function"
    },
    {
      "constant": false,
      "inputs": [],
      "name": "renouncePauser",
      "outputs": [],
      "payable": false,
      "stateMutability": "nonpayable",
      "type": "function"
    },
    {
      "constant": false,
      "inputs": [],
      "name": "renounceOwnership",
      "outputs": [],
      "payable": false,
      "stateMutability": "nonpayable",
      "type": "function"
    },
    {
      "constant": false,
      "inputs": [
        {
          "name": "account",
          "type": "address"
        }
      ],
      "name": "addPauser",
      "outputs": [],
      "payable": false,
      "stateMutability": "nonpayable",
      "type": "function"
    },
    {
      "constant": false,
      "inputs": [],
      "name": "pause",
      "outputs": [],
      "payable": false,
      "stateMutability": "nonpayable",
      "type": "function"
    },
    {
      "constant": true,
      "inputs": [],
      "name": "owner",
      "outputs": [
        {
          "name": "",
          "type": "address"
        }
      ],
      "payable": false,
      "stateMutability": "view",
      "type": "function"
    },
    {
      "constant": true,
      "inputs": [],
      "name": "isOwner",
      "outputs": [
        {
          "name": "",
          "type": "bool"
        }
      ],
      "payable": false,
      "stateMutability": "view",
      "type": "function"
    },
    {
      "constant": true,
      "inputs": [
        {
          "name": "",
          "type": "uint256"
        }
      ],
      "name": "transactions",
      "outputs": [
        {
          "name": "contract_",
          "type": "address"
        },
        {
          "name": "to_",
          "type": "address"
        },
        {
          "name": "amount_",
          "type": "uint256"
        },
        {
          "name": "failed_",
          "type": "bool"
        }
      ],
      "payable": false,
      "stateMutability": "view",
      "type": "function"
    },
    {
      "constant": true,
      "inputs": [
        {
          "name": "",
          "type": "address"
        },
        {
          "name": "",
          "type": "uint256"
        }
      ],
      "name": "transactionIndexesToSender",
      "outputs": [
        {
          "name": "",
          "type": "uint256"
        }
      ],
      "payable": false,
      "stateMutability": "view",
      "type": "function"
    },
    {
      "constant": false,
      "inputs": [
        {
          "name": "newOwner",
          "type": "address"
        }
      ],
      "name": "transferOwnership",
      "outputs": [],
      "payable": false,
      "stateMutability": "nonpayable",
      "type": "function"
    },
    {
      "constant": true,
      "inputs": [],
      "name": "token",
      "outputs": [
        {
          "name": "",
          "type": "address"
        }
      ],
      "payable": false,
      "stateMutability": "view",
      "type": "function"
    },
    {
      "inputs": [
        {
          "name": "_token",
          "type": "address"
        }
      ],
      "payable": false,
      "stateMutability": "nonpayable",
      "type": "constructor"
    },
    {
      "payable": true,
      "stateMutability": "payable",
      "type": "fallback"
    },
    {
      "anonymous": false,
      "inputs": [
        {
          "indexed": true,
          "name": "from_",
          "type": "address"
        },
        {
          "indexed": true,
          "name": "to_",
          "type": "address"
        },
        {
          "indexed": false,
          "name": "amount_",
          "type": "uint256"
        }
      ],
      "name": "TransferSuccessful",
      "type": "event"
    },
    {
      "anonymous": false,
      "inputs": [
        {
          "indexed": true,
          "name": "from_",
          "type": "address"
        },
        {
          "indexed": true,
          "name": "to_",
          "type": "address"
        },
        {
          "indexed": false,
          "name": "amount_",
          "type": "uint256"
        }
      ],
      "name": "TransferFailed",
      "type": "event"
    },
    {
      "anonymous": false,
      "inputs": [
        {
          "indexed": false,
          "name": "account",
          "type": "address"
        }
      ],
      "name": "Paused",
      "type": "event"
    },
    {
      "anonymous": false,
      "inputs": [
        {
          "indexed": false,
          "name": "account",
          "type": "address"
        }
      ],
      "name": "Unpaused",
      "type": "event"
    },
    {
      "anonymous": false,
      "inputs": [
        {
          "indexed": true,
          "name": "account",
          "type": "address"
        }
      ],
      "name": "PauserAdded",
      "type": "event"
    },
    {
      "anonymous": false,
      "inputs": [
        {
          "indexed": true,
          "name": "account",
          "type": "address"
        }
      ],
      "name": "PauserRemoved",
      "type": "event"
    },
    {
      "anonymous": false,
      "inputs": [
        {
          "indexed": true,
          "name": "previousOwner",
          "type": "address"
        },
        {
          "indexed": true,
          "name": "newOwner",
          "type": "address"
        }
      ],
      "name": "OwnershipTransferred",
      "type": "event"
    },
    {
      "constant": false,
      "inputs": [
        {
          "name": "to_",
          "type": "address"
        },
        {
          "name": "amount_",
          "type": "uint256"
        }
      ],
      "name": "transferTokens",
      "outputs": [],
      "payable": false,
      "stateMutability": "nonpayable",
      "type": "function"
    },
    {
      "constant": false,
      "inputs": [
        {
          "name": "beneficiary",
          "type": "address"
        }
      ],
      "name": "withdraw",
      "outputs": [],
      "payable": true,
      "stateMutability": "payable",
      "type": "function"
    }
  ],
  "bytecode": "0x608060405234801561001057600080fd5b50604051602080610d09833981016040819052905160008054600160a060020a03191633178082559192600160a060020a0392909216917f8be0079c531659141344cd1fd0a4f28419497f9722a3daafe3b4186f6b6457e0908290a361007e336401000000006100b9810204565b60028054600160a860020a031916610100330217905560038054600160a060020a031916600160a060020a0392909216919091179055610196565b6100d1600182640100000000610ad061010882021704565b604051600160a060020a038216907f6719d08c1888103bea251a4ed56406bd0c3e69723c8a1686e017e7bbe159b6f890600090a250565b600160a060020a038116151561011d57600080fd5b610130828264010000000061015f810204565b1561013a57600080fd5b600160a060020a0316600090815260209190915260409020805460ff19166001179055565b6000600160a060020a038216151561017657600080fd5b50600160a060020a03166000908152602091909152604090205460ff1690565b610b64806101a56000396000f3006080604052600436106100e55763ffffffff7c01000000000000000000000000000000000000000000000000000000006000350416631bbc4b8381146100e75780633f4ba83a1461012557806346fbf68e1461013a57806351cff8d91461017c5780635c975abb1461019d5780636ef8d66d146101b2578063715018a6146101c757806382dc1ec4146101dc5780638456cb591461020a5780638da5cb5b1461021f5780638f32d59b146102345780639ace38c214610249578063bec3fa17146102a2578063c4796437146102d3578063f2fde38b14610316578063fc0c546a14610344575b005b3480156100f357600080fd5b506100fc610359565b6040805173ffffffffffffffffffffffffffffffffffffffff9092168252519081900360200190f35b34801561013157600080fd5b506100e5610375565b34801561014657600080fd5b5061016873ffffffffffffffffffffffffffffffffffffffff600435166103d9565b604080519115158252519081900360200190f35b6100e573ffffffffffffffffffffffffffffffffffffffff600435166103f2565b3480156101a957600080fd5b5061016861045c565b3480156101be57600080fd5b506100e5610465565b3480156101d357600080fd5b506100e5610470565b3480156101e857600080fd5b506100e573ffffffffffffffffffffffffffffffffffffffff600435166104e7565b34801561021657600080fd5b506100e5610507565b34801561022b57600080fd5b506100fc61056d565b34801561024057600080fd5b5061016861058e565b34801561025557600080fd5b506102616004356105ac565b6040805173ffffffffffffffffffffffffffffffffffffffff9586168152939094166020840152828401919091521515606082015290519081900360800190f35b3480156102ae57600080fd5b506100e573ffffffffffffffffffffffffffffffffffffffff60043516602435610600565b3480156102df57600080fd5b5061030473ffffffffffffffffffffffffffffffffffffffff60043516602435610863565b60408051918252519081900360200190f35b34801561032257600080fd5b506100e573ffffffffffffffffffffffffffffffffffffffff60043516610893565b34801561035057600080fd5b506100fc6108af565b60065473ffffffffffffffffffffffffffffffffffffffff1681565b61037e336103d9565b151561038957600080fd5b60025460ff16151561039a57600080fd5b6002805460ff191690556040805133815290517f5db9ee0a495bf2e6ff9c91a7834c1ba4fdd244a5e8aa4e537bd38aeae4b073aa9181900360200190a1565b60006103ec60018363ffffffff6108cb16565b92915050565b6103fa61058e565b151561040557600080fd5b60025460ff161561041557600080fd5b60405173ffffffffffffffffffffffffffffffffffffffff821690303180156108fc02916000818181858888f19350505050158015610458573d6000803e3d6000fd5b5050565b60025460ff1690565b61046e3361091c565b565b61047861058e565b151561048357600080fd5b6000805460405173ffffffffffffffffffffffffffffffffffffffff909116907f8be0079c531659141344cd1fd0a4f28419497f9722a3daafe3b4186f6b6457e0908390a36000805473ffffffffffffffffffffffffffffffffffffffff19169055565b6104f0336103d9565b15156104fb57600080fd5b61050481610971565b50565b610510336103d9565b151561051b57600080fd5b60025460ff161561052b57600080fd5b6002805460ff191660011790556040805133815290517f62e78cea01bee320cd4e420270b5ea74000d11b0c9f74754ebdbfc544b05a2589181900360200190a1565b600254610100900473ffffffffffffffffffffffffffffffffffffffff1681565b60005473ffffffffffffffffffffffffffffffffffffffff16331490565b60048054829081106105ba57fe5b6000918252602090912060049091020180546001820154600283015460039093015473ffffffffffffffffffffffffffffffffffffffff92831694509116919060ff1684565b60025460009060ff161561061357600080fd5b6000821161062057600080fd5b506003546006805473ffffffffffffffffffffffffffffffffffffffff191673ffffffffffffffffffffffffffffffffffffffff9283161790819055604080517fdd62ed3e000000000000000000000000000000000000000000000000000000008152336004820181905230602483015291519193929092169163dd62ed3e9160448083019260209291908290030181600087803b1580156106c157600080fd5b505af11580156106d5573d6000803e3d6000fd5b505050506040513d60208110156106eb57600080fd5b505182111561075e578273ffffffffffffffffffffffffffffffffffffffff168173ffffffffffffffffffffffffffffffffffffffff167fbf182be802245e8ed88e4b8d3e4344c0863dd2a70334f089fd07265389306fcf846040518082815260200191505060405180910390a3600080fd5b600654604080517f23b872dd00000000000000000000000000000000000000000000000000000000815273ffffffffffffffffffffffffffffffffffffffff8481166004830152868116602483015260448201869052915191909216916323b872dd9160648083019260209291908290030181600087803b1580156107e257600080fd5b505af11580156107f6573d6000803e3d6000fd5b505050506040513d602081101561080c57600080fd5b505060408051838152905173ffffffffffffffffffffffffffffffffffffffff80861692908416917fd6d3eb25a413c05d8107fc49deb2789bef7f612582b2482804c0b0423b6638ee9181900360200190a3505050565b60056020528160005260406000208181548110151561087e57fe5b90600052602060002001600091509150505481565b61089b61058e565b15156108a657600080fd5b610504816109c6565b60035473ffffffffffffffffffffffffffffffffffffffff1681565b600073ffffffffffffffffffffffffffffffffffffffff821615156108ef57600080fd5b5073ffffffffffffffffffffffffffffffffffffffff166000908152602091909152604090205460ff1690565b61092d60018263ffffffff610a6a16565b60405173ffffffffffffffffffffffffffffffffffffffff8216907fcd265ebaf09df2871cc7bd4133404a235ba12eff2041bb89d9c714a2621c7c7e90600090a250565b61098260018263ffffffff610ad016565b60405173ffffffffffffffffffffffffffffffffffffffff8216907f6719d08c1888103bea251a4ed56406bd0c3e69723c8a1686e017e7bbe159b6f890600090a250565b73ffffffffffffffffffffffffffffffffffffffff811615156109e857600080fd5b6000805460405173ffffffffffffffffffffffffffffffffffffffff808516939216917f8be0079c531659141344cd1fd0a4f28419497f9722a3daafe3b4186f6b6457e091a36000805473ffffffffffffffffffffffffffffffffffffffff191673ffffffffffffffffffffffffffffffffffffffff92909216919091179055565b73ffffffffffffffffffffffffffffffffffffffff81161515610a8c57600080fd5b610a9682826108cb565b1515610aa157600080fd5b73ffffffffffffffffffffffffffffffffffffffff16600090815260209190915260409020805460ff19169055565b73ffffffffffffffffffffffffffffffffffffffff81161515610af257600080fd5b610afc82826108cb565b15610b0657600080fd5b73ffffffffffffffffffffffffffffffffffffffff16600090815260209190915260409020805460ff191660011790555600a165627a7a72305820be7787829fd5910d145a84d7e9b398c55409725c09e37a64ec746a2f28926c450029",
  "source": "pragma solidity ^0.4.24;\n\nimport \"openzeppelin-solidity/contracts/token/ERC20/ERC20.sol\";\nimport \"openzeppelin-solidity/contracts/lifecycle/Pausable.sol\";\nimport \"openzeppelin-solidity/contracts/ownership/Ownable.sol\";\n\ncontract TokenManager is Ownable, Pausable {\n\n    struct Transfer {\n        address contract_;\n        address to_;\n        uint amount_;\n        bool failed_;\n    }\n\n    address public owner;\n    address public token;\n\n    Transfer[] public transactions;\n\n    mapping(address => uint[]) public transactionIndexesToSender;\n\n    ERC20 public ERC20Interface;\n\n    event TransferSuccessful(address indexed from_, address indexed to_, uint256 amount_);\n    event TransferFailed(address indexed from_, address indexed to_, uint256 amount_);\n\n    constructor(address _token) public {\n        owner = msg.sender;\n        token = _token;\n    }\n\n    function transferTokens(address to_, uint256 amount_) public whenNotPaused {\n        require(amount_ > 0);\n        address from_ = msg.sender;\n        ERC20Interface = ERC20(token);\n\n        // uint256 transactionId = transactions.push(\n        //     Transfer({\n        //         contract_:  token,\n        //         to_: to_,\n        //         amount_: amount_,\n        //         failed_: true\n        //     })\n        // );\n\n        // transactionIndexesToSender[from_].push(transactionId - 1);\n\n        if (amount_ > ERC20Interface.allowance(from_, address(this))) {\n            emit TransferFailed(from_, to_, amount_);\n            revert();\n        }\n\n        ERC20Interface.transferFrom(from_, to_, amount_);\n\n        // transactions[transactionId - 1].failed_ = false;\n\n        emit TransferSuccessful(from_, to_, amount_);\n    }\n\n    function() public payable {\n\n    }\n\n    function withdraw(address beneficiary) public payable onlyOwner whenNotPaused {\n        beneficiary.transfer(address(this).balance);\n    }\n}",
  "sourcePath": "/Users/jedsada/Documents/development/token-demo/contracts/TokenManager.sol",
  "compiler": {
    "name": "solc",
    "version": "0.4.24+commit.e67f0147.Emscripten.clang"
  },
  "schemaVersion": "2.0.1",
  "updatedAt": "2018-10-24T14:35:03.043Z"
}