{
  "contractName": "TweentyScoopsToken",
  "abi": [
    {
      "constant": true,
      "inputs": [],
      "name": "name",
      "outputs": [
        {
          "name": "",
          "type": "string"
        }
      ],
      "payable": false,
      "stateMutability": "view",
      "type": "function"
    },
    {
      "constant": false,
      "inputs": [
        {
          "name": "spender",
          "type": "address"
        },
        {
          "name": "value",
          "type": "uint256"
        }
      ],
      "name": "approve",
      "outputs": [
        {
          "name": "",
          "type": "bool"
        }
      ],
      "payable": false,
      "stateMutability": "nonpayable",
      "type": "function"
    },
    {
      "constant": true,
      "inputs": [],
      "name": "totalSupply",
      "outputs": [
        {
          "name": "",
          "type": "uint256"
        }
      ],
      "payable": false,
      "stateMutability": "view",
      "type": "function"
    },
    {
      "constant": false,
      "inputs": [
        {
          "name": "from",
          "type": "address"
        },
        {
          "name": "to",
          "type": "address"
        },
        {
          "name": "value",
          "type": "uint256"
        }
      ],
      "name": "transferFrom",
      "outputs": [
        {
          "name": "",
          "type": "bool"
        }
      ],
      "payable": false,
      "stateMutability": "nonpayable",
      "type": "function"
    },
    {
      "constant": true,
      "inputs": [],
      "name": "INITIAL_SUPPLY",
      "outputs": [
        {
          "name": "",
          "type": "uint256"
        }
      ],
      "payable": false,
      "stateMutability": "view",
      "type": "function"
    },
    {
      "constant": true,
      "inputs": [],
      "name": "decimals",
      "outputs": [
        {
          "name": "",
          "type": "uint8"
        }
      ],
      "payable": false,
      "stateMutability": "view",
      "type": "function"
    },
    {
      "constant": false,
      "inputs": [
        {
          "name": "spender",
          "type": "address"
        },
        {
          "name": "addedValue",
          "type": "uint256"
        }
      ],
      "name": "increaseAllowance",
      "outputs": [
        {
          "name": "",
          "type": "bool"
        }
      ],
      "payable": false,
      "stateMutability": "nonpayable",
      "type": "function"
    },
    {
      "constant": true,
      "inputs": [
        {
          "name": "owner",
          "type": "address"
        }
      ],
      "name": "balanceOf",
      "outputs": [
        {
          "name": "",
          "type": "uint256"
        }
      ],
      "payable": false,
      "stateMutability": "view",
      "type": "function"
    },
    {
      "constant": false,
      "inputs": [],
      "name": "renounceOwnership",
      "outputs": [],
      "payable": false,
      "stateMutability": "nonpayable",
      "type": "function"
    },
    {
      "constant": true,
      "inputs": [],
      "name": "owner",
      "outputs": [
        {
          "name": "",
          "type": "address"
        }
      ],
      "payable": false,
      "stateMutability": "view",
      "type": "function"
    },
    {
      "constant": true,
      "inputs": [],
      "name": "isOwner",
      "outputs": [
        {
          "name": "",
          "type": "bool"
        }
      ],
      "payable": false,
      "stateMutability": "view",
      "type": "function"
    },
    {
      "constant": true,
      "inputs": [],
      "name": "symbol",
      "outputs": [
        {
          "name": "",
          "type": "string"
        }
      ],
      "payable": false,
      "stateMutability": "view",
      "type": "function"
    },
    {
      "constant": false,
      "inputs": [
        {
          "name": "spender",
          "type": "address"
        },
        {
          "name": "subtractedValue",
          "type": "uint256"
        }
      ],
      "name": "decreaseAllowance",
      "outputs": [
        {
          "name": "",
          "type": "bool"
        }
      ],
      "payable": false,
      "stateMutability": "nonpayable",
      "type": "function"
    },
    {
      "constant": false,
      "inputs": [
        {
          "name": "to",
          "type": "address"
        },
        {
          "name": "value",
          "type": "uint256"
        }
      ],
      "name": "transfer",
      "outputs": [
        {
          "name": "",
          "type": "bool"
        }
      ],
      "payable": false,
      "stateMutability": "nonpayable",
      "type": "function"
    },
    {
      "constant": true,
      "inputs": [
        {
          "name": "owner",
          "type": "address"
        },
        {
          "name": "spender",
          "type": "address"
        }
      ],
      "name": "allowance",
      "outputs": [
        {
          "name": "",
          "type": "uint256"
        }
      ],
      "payable": false,
      "stateMutability": "view",
      "type": "function"
    },
    {
      "constant": false,
      "inputs": [
        {
          "name": "newOwner",
          "type": "address"
        }
      ],
      "name": "transferOwnership",
      "outputs": [],
      "payable": false,
      "stateMutability": "nonpayable",
      "type": "function"
    },
    {
      "inputs": [],
      "payable": false,
      "stateMutability": "nonpayable",
      "type": "constructor"
    },
    {
      "anonymous": false,
      "inputs": [
        {
          "indexed": true,
          "name": "previousOwner",
          "type": "address"
        },
        {
          "indexed": true,
          "name": "newOwner",
          "type": "address"
        }
      ],
      "name": "OwnershipTransferred",
      "type": "event"
    },
    {
      "anonymous": false,
      "inputs": [
        {
          "indexed": true,
          "name": "from",
          "type": "address"
        },
        {
          "indexed": true,
          "name": "to",
          "type": "address"
        },
        {
          "indexed": false,
          "name": "value",
          "type": "uint256"
        }
      ],
      "name": "Transfer",
      "type": "event"
    },
    {
      "anonymous": false,
      "inputs": [
        {
          "indexed": true,
          "name": "owner",
          "type": "address"
        },
        {
          "indexed": true,
          "name": "spender",
          "type": "address"
        },
        {
          "indexed": false,
          "name": "value",
          "type": "uint256"
        }
      ],
      "name": "Approval",
      "type": "event"
    }
  ],
  "bytecode": "0x608060405234801561001057600080fd5b5060038054600160a060020a031916331790819055604051600160a060020a0391909116906000907f8be0079c531659141344cd1fd0a4f28419497f9722a3daafe3b4186f6b6457e0908290a361007a3369021e19e0c9bab240000064010000000061007f810204565b610150565b600160a060020a038216151561009457600080fd5b6002546100ae90826401000000006109b361013782021704565b600255600160a060020a0382166000908152602081905260409020546100e190826401000000006109b361013782021704565b600160a060020a0383166000818152602081815260408083209490945583518581529351929391927fddf252ad1be2c89b69c2b068fc378daa952ba7f163c4a11628f55a4df523b3ef9281900390910190a35050565b60008282018381101561014957600080fd5b9392505050565b610aa88061015f6000396000f3006080604052600436106100e55763ffffffff7c010000000000000000000000000000000000000000000000000000000060003504166306fdde0381146100ea578063095ea7b31461017457806318160ddd146101b957806323b872dd146101e05780632ff2e9dc14610217578063313ce5671461022c578063395093511461025757806370a0823114610288578063715018a6146102b65780638da5cb5b146102cd5780638f32d59b1461030b57806395d89b4114610320578063a457c2d714610335578063a9059cbb14610366578063dd62ed3e14610397578063f2fde38b146103cb575b600080fd5b3480156100f657600080fd5b506100ff6103f9565b6040805160208082528351818301528351919283929083019185019080838360005b83811015610139578181015183820152602001610121565b50505050905090810190601f1680156101665780820380516001836020036101000a031916815260200191505b509250505060405180910390f35b34801561018057600080fd5b506101a573ffffffffffffffffffffffffffffffffffffffff60043516602435610430565b604080519115158252519081900360200190f35b3480156101c557600080fd5b506101ce6104c8565b60408051918252519081900360200190f35b3480156101ec57600080fd5b506101a573ffffffffffffffffffffffffffffffffffffffff600435811690602435166044356104ce565b34801561022357600080fd5b506101ce610592565b34801561023857600080fd5b506102416105a0565b6040805160ff9092168252519081900360200190f35b34801561026357600080fd5b506101a573ffffffffffffffffffffffffffffffffffffffff600435166024356105a5565b34801561029457600080fd5b506101ce73ffffffffffffffffffffffffffffffffffffffff6004351661067c565b3480156102c257600080fd5b506102cb6106a4565b005b3480156102d957600080fd5b506102e2610726565b6040805173ffffffffffffffffffffffffffffffffffffffff9092168252519081900360200190f35b34801561031757600080fd5b506101a5610742565b34801561032c57600080fd5b506100ff610760565b34801561034157600080fd5b506101a573ffffffffffffffffffffffffffffffffffffffff60043516602435610797565b34801561037257600080fd5b506101a573ffffffffffffffffffffffffffffffffffffffff600435166024356107fc565b3480156103a357600080fd5b506101ce73ffffffffffffffffffffffffffffffffffffffff60043581169060243516610812565b3480156103d757600080fd5b506102cb73ffffffffffffffffffffffffffffffffffffffff6004351661084a565b60408051808201909152600d81527f323053636f6f7073546f6b656e00000000000000000000000000000000000000602082015281565b600073ffffffffffffffffffffffffffffffffffffffff8316151561045457600080fd5b33600081815260016020908152604080832073ffffffffffffffffffffffffffffffffffffffff881680855290835292819020869055805186815290519293927f8c5be1e5ebec7d5bd14f71427d1e84f3dd0314c0f7b2291e5b200ac8c7c3b925929181900390910190a350600192915050565b60025490565b73ffffffffffffffffffffffffffffffffffffffff8316600090815260016020908152604080832033845290915281205482111561050b57600080fd5b73ffffffffffffffffffffffffffffffffffffffff8416600090815260016020908152604080832033845290915290205461054c908363ffffffff61086916565b73ffffffffffffffffffffffffffffffffffffffff85166000908152600160209081526040808320338452909152902055610588848484610880565b5060019392505050565b69021e19e0c9bab240000081565b601281565b600073ffffffffffffffffffffffffffffffffffffffff831615156105c957600080fd5b33600090815260016020908152604080832073ffffffffffffffffffffffffffffffffffffffff8716845290915290205461060a908363ffffffff6109b316565b33600081815260016020908152604080832073ffffffffffffffffffffffffffffffffffffffff89168085529083529281902085905580519485525191937f8c5be1e5ebec7d5bd14f71427d1e84f3dd0314c0f7b2291e5b200ac8c7c3b925929081900390910190a350600192915050565b73ffffffffffffffffffffffffffffffffffffffff1660009081526020819052604090205490565b6106ac610742565b15156106b757600080fd5b60035460405160009173ffffffffffffffffffffffffffffffffffffffff16907f8be0079c531659141344cd1fd0a4f28419497f9722a3daafe3b4186f6b6457e0908390a3600380547fffffffffffffffffffffffff0000000000000000000000000000000000000000169055565b60035473ffffffffffffffffffffffffffffffffffffffff1690565b60035473ffffffffffffffffffffffffffffffffffffffff16331490565b60408051808201909152600381527f3230530000000000000000000000000000000000000000000000000000000000602082015281565b600073ffffffffffffffffffffffffffffffffffffffff831615156107bb57600080fd5b33600090815260016020908152604080832073ffffffffffffffffffffffffffffffffffffffff8716845290915290205461060a908363ffffffff61086916565b6000610809338484610880565b50600192915050565b73ffffffffffffffffffffffffffffffffffffffff918216600090815260016020908152604080832093909416825291909152205490565b610852610742565b151561085d57600080fd5b610866816109cc565b50565b6000808383111561087957600080fd5b5050900390565b73ffffffffffffffffffffffffffffffffffffffff83166000908152602081905260409020548111156108b257600080fd5b73ffffffffffffffffffffffffffffffffffffffff821615156108d457600080fd5b73ffffffffffffffffffffffffffffffffffffffff831660009081526020819052604090205461090a908263ffffffff61086916565b73ffffffffffffffffffffffffffffffffffffffff808516600090815260208190526040808220939093559084168152205461094c908263ffffffff6109b316565b73ffffffffffffffffffffffffffffffffffffffff8084166000818152602081815260409182902094909455805185815290519193928716927fddf252ad1be2c89b69c2b068fc378daa952ba7f163c4a11628f55a4df523b3ef92918290030190a3505050565b6000828201838110156109c557600080fd5b9392505050565b73ffffffffffffffffffffffffffffffffffffffff811615156109ee57600080fd5b60035460405173ffffffffffffffffffffffffffffffffffffffff8084169216907f8be0079c531659141344cd1fd0a4f28419497f9722a3daafe3b4186f6b6457e090600090a3600380547fffffffffffffffffffffffff00000000000000000000000000000000000000001673ffffffffffffffffffffffffffffffffffffffff929092169190911790555600a165627a7a72305820c6a1149ce05b2565ca2f60964bef81d478b08f9442fac6954356ee54b07e77a40029",
  "source": "pragma solidity ^0.4.24;\n\nimport \"openzeppelin-solidity/contracts/token/ERC20/ERC20.sol\";\nimport \"openzeppelin-solidity/contracts/ownership/Ownable.sol\";\n\ncontract TweentyScoopsToken is ERC20, Ownable {\n\n    string public constant name = \"20ScoopsToken\";\n    string public constant symbol = \"20S\";\n    uint8 public constant decimals = 18;\n\n    uint256 public constant INITIAL_SUPPLY = 10000 * (10 ** uint256(decimals));\n\n    constructor() public {\n        _mint(msg.sender, INITIAL_SUPPLY);\n    }\n}",
  "sourcePath": "/Users/jedsada/Documents/development/token-demo/contracts/TweentyScoopsToken.sol",
  "compiler": {
    "name": "solc",
    "version": "0.4.24+commit.e67f0147.Emscripten.clang"
  },
  "schemaVersion": "2.0.1",
  "updatedAt": "2018-10-24T14:35:03.039Z"
}